:1000FB0020280800000000000000003C42A9858574
:10010B00A9423C3C42A18585A1423C3C42A5898940
:0B011B00A5423C0000000000000000B6
:10008F00753103E4F53212015EE4F530E5302531C8
:10009F002408F8E6FD7C00AF301201270530E5306B
:1000AF00C3940840E70532E532D3940A40DBE4F508
:0F00BF00320531E531D3942840CFE4F53180CAC2
:10014900EF1FAC0670011E4C600A7D027CEFDCFEDD
:04015900DDFC80EC5D
:01015D00227F
:0200CE00AD077C
:1000D000E4FB74807E00A803088006CEA2E713CE5E
:1000E00013D8F8FFEDF582EF558224FF92B4D2B613
:0A00F000C2B60BBB08DCD2B5C2B5E6
:0100FA0022E3
:05015E00C2B6C2B5228B
:10012700AA07AF051200CEAF027480A807088002A5
:10013700C313D8FCF4F5807F017E00120149758056
:02014700FF2295
:03000000020003F8
:0C000300787FE4F6D8FD75813202004AD7
:10000F0002008FE493A3F8E493A34003F68001F278
:10001F0008DFF48029E493A3F85407240CC8C333F2
:10002F00C4540F4420C8834004F456800146F6DFC1
:10003F00E4800B01020408102040809000FBE47E56
:10004F00019360BCA3FF543F30E509541FFEE493B6
:10005F00A360010ECF54C025E060A840B8E493A37D
:10006F00FAE493A3F8E493A3C8C582C8CAC583CAA8
:10007F00F0A3C8C582C8CAC583CADFE9DEE780BE60
:0101260000D8
:00000001FF
