:1004260050617373776F72643A004F4B20004552E8
:060436005200202020000E
:10018C001204677BFF7A0479267D017F011203C874
:10019C001200038F1CE51C60F7D3940A5041C3E591
:1001AC00199404E51894005028AE1AAF1B7C007DFE
:1001BC000A1202838E1A8F1BE51C75F00A84E5F077
:1001CC00251BF51BE4351AF51A0519E519700205FE
:1001DC0018750C04AB1BAA1A7D017F02120409E5E9
:1001EC001C640B7036E51BB4290DE51AB409087BA9
:1001FC00FF7A04793080067BFF7A0479347D0E7F98
:10020C00011203C8E4F51AF51BF518F519750C0461
:10021C00AB1BAA1A7D017F02120409E51C640C6059
:10022C000302019CF51AF51BF518F519750C04ABB6
:10023C001BAA1A7D017F021204097BFF7A0479380C
:0A024C007D0E7F011203C802019C21
:10045200EF1FAC0670011E4C600A7D027CEFDCFED1
:04046200DDFC80EC51
:010466002273
:06047B00C2A58F80D2A78C
:080481007F027EEFDEFEDFFCCE
:010489002250
:0A049600C2A612047BC2A702048173
:1003EB00CFCDCFCECCCE1202957C007D0A120295DA
:0403FB00ED2430FFBE
:0A03FF00D2A612047BC2A7020481FB
:10043C00AE07BE0104ED148006BE0209ED243F4454
:06044C0080FF120496225D
:100467007F381204967F0C1204967F061204967F3B
:0404770001020496E4
:0A04A000AC0312043CAF040203FF9A
:0603C8008B088A09890A76
:1003CE0012043CE4FDAB08AA09A90A8D82758300CC
:0C03DE00120256FF60061203FF0D80E9BA
:0103EA0022F0
:0C0395007F0AEA24FFFDE434FFFC7E0038
:0803A1008E0D8F0E8C0F8D10E4
:1003A9007F017E00E4FBEBC39510E50F6480F874D0
:0E03B9008098500AAC0DAD0E1202830B80E846
:0103C7002213
:040409008A0A8B0BC5
:10040D0012043CAA0CEAD39400400D120395AC0AD9
:08041D00AD0B1203EB1A80ED98
:0104250022B4
:1002EA0012043CC3EA64809480400B7F2B1203FF04
:1002FA008A168B17800E7F2D1203FFC3E49BF51716
:10030A00E49AF516AA15EAD39400400D120395ACA7
:09031A0016AD171203EB1A80ED79
:0103230022B7
:040324008A1F8B2081
:1003280012043CAA21EAD3940040297F10120397B3
:10033800AC1FAD20CFCDCFCECCCE120295EF540F4F
:10034800FEC3940AEE5004243080022437FF1203BF
:04035800FF1A80D137
:01035C00227E
:04035D008A248B253E
:1003610012043CAA26EAD394004028EA24FFFDE4C3
:1003710034FFFC7F027E001203A1AC24AD25CFCD5A
:10038100CFCECCCE120295EF54012430FF1203FFE1
:030391001A80D2FD
:010394002246
:10000300E4F5087590FFC2932097137F14FE120442
:10001300523097FD7F147E0012045275080120961A
:10002300147F147E001204523096FD7F147E00125A
:1000330004527508052095147F147E001204523073
:1000430095FD7F147E001204527508092094147FD5
:10005300147E001204523094FD7F147E0012045269
:1000630075080D7590FFC2922097147F147E0012BD
:1000730004523097FD7F147E00120452750802204B
:1000830096147F147E001204523096FD7F147E0076
:100093001204527508062095147F147E0012045230
:1000A3003095FD7F147E0012045275080A209414C3
:1000B3007F147E001204523094FD7F147E001204DC
:1000C3005275080E7590FFC2912097147F147E001D
:1000D3001204523097FD7F147E00120452750803F8
:1000E3002096147F147E001204523096FD7F147EF6
:1000F300001204527508072095147F147E00120421
:10010300523095FD7F147E0012045275080B209423
:10011300147F147E001204523094FD7F147E00126B
:10012300045275080F7590FFC2902097147F147EB8
:10013300001204523097FD7F147E0012045275089A
:10014300042096147F147E001204523096FD7F140F
:100153007E001204527508082095147F147E001245
:1001630004523095FD7F147E0012045275080C2052
:1001730094147F147E001204523094FD7F147E0089
:08018300120452750810AF08C8
:01018B002251
:0300000002048A6D
:0C048A00787FE4F6D8FD75812602018C15
:10025600BB010CE58229F582E5833AF583E022505D
:1002660006E92582F8E622BBFE06E92582F8E222A7
:0D027600E58229F582E5833AF583E49322C1
:10028300EF8DF0A4A8F0CF8CF0A428CE8DF0A42E8F
:02029300FE2249
:10029500BC000BBE0029EF8DF084FFADF022E4CC4D
:1002A500F875F008EF2FFFEE33FEEC33FCEE9DEC16
:1002B500984005FCEE9DFE0FD5F0E9E4CEFD22ED5C
:1002C500F8F5F0EE8420D21CFEADF075F008EF2FA6
:1002D500FFED33FD4007985006D5F0F222C398FD97
:0502E5000FD5F0EA2234
:00000001FF
