:10030400EF1FAC0670011E4C600A7D027CEFDCFE20
:04031400DDFC80ECA0
:0103180022C2
:1000A200E4F52720B1137F14FE12030430B1FD7F63
:1000B200147E0012030475270120B0147F147E0001
:1000C20012030430B0FD7F147E0012030475270270
:1000D20020B2147F147E0012030430B2FD7F147E1E
:1000E2000012030475270320B3147F147E00120349
:1000F2000430B3FD7F147E00120304752704AF277A
:0101020022DA
:0E033C00436C6F636B3A0020203A20203A0099
:100103001203191202D77BFF7A03793C7D017F0129
:100113001202797BFF7A0379437D017F0212027910
:10012300E51BFB7A00750C027D017F021202BAE522
:100133001CFB7A00750C027D047F021202BAE51AD9
:0F014300FB7A00750C027D077F021202BA80D191
:03000B000201529D
:04015200C0E0C0D079
:100156000519E51970020518758CFC758A17C3E533
:100166001994E8E5189403402775180075190005D9
:100176001AE51A943C4019751A00051CE51C943CB6
:10018600400E751C00051BE51B94184003751B00EB
:05019600D0D0D0E032E2
:1002D7005389F0438901C28DD28C758CFC758A17BE
:0702E700D2A9D2AFC2B92277
:06032D00C2A58F80D2A7DB
:080333007F027EEFDEFEDFFC1D
:01033B00229F
:0A035600C2A612032DC2A702033352
:10029C00CFCDCFCECCCE12004D7C007D0A12004DBE
:0402AC00ED2430FF0E
:0A02B000D2A612032DC2A7020333E9
:1002EE00AE07BE0104ED148006BE0209ED243F44A4
:0602FE0080FF12035622EE
:100319007F381203567F0C1203567F061203567F4D
:040329000102035674
:0A036000AC031202EEAF040202B07B
:060279008B088A09890AC6
:10027F001202EEE4FDAB08AA09A90A8D827583006C
:0C028F0012000EFF60061202B00D80E9A4
:01029B002240
:0C0246007F0AEA24FFFDE434FFFC7E0088
:080252008E0D8F0E8C0F8D1034
:10025A007F017E00E4FBEBC39510E50F6480F87420
:0E026A008098500AAC0DAD0E12003B0B80E8E0
:010278002263
:0402BA008A0A8B0B16
:1002BE001202EEAA0CEAD39400400D120246AC0ACA
:0802CE00AD0B12029C1A80ED39
:0102D6002205
:10019B001202EEC3EA64809480400B7F2B1202B0F4
:1001AB008A168B17800E7F2D1202B0C3E49BF517B6
:1001BB00E49AF516AA15EAD39400400D120246AC48
:0901CB0016AD1712029C1A80ED1A
:0101D4002208
:0401D5008A1F8B20D2
:1001D9001202EEAA21EAD3940040297F10120248A4
:1001E900AC1FAD20CFCDCFCECCCE12004DEF540FEA
:1001F900FEC3940AEE5004243080022437FF120211
:04020900B01A80D1D6
:01020D0022CE
:04020E008A248B258E
:100212001202EEAA26EAD394004028EA24FFFDE463
:1002220034FFFC7F027E00120252AC24AD25CFCDFA
:10023200CFCECCCE12004DEF54012430FF1202B0CB
:030242001A80D24D
:010245002296
:0300000002034AAE
:0C034A00787FE4F6D8FD758127020103DE
:10000E00BB010CE58229F582E5833AF583E02250A7
:10001E0006E92582F8E622BBFE06E92582F8E222F1
:0D002E00E58229F582E5833AF583E493220B
:10003B00EF8DF0A4A8F0CF8CF0A428CE8DF0A42ED9
:02004B00FE2293
:10004D00BC000BBE0029EF8DF084FFADF022E4CC97
:10005D00F875F008EF2FFFEE33FEEC33FCEE9DEC60
:10006D00984005FCEE9DFE0FD5F0E9E4CEFD22EDA6
:10007D00F8F5F0EE8420D21CFEADF075F008EF2FF0
:10008D00FFED33FD4007985006D5F0F222C398FDE1
:05009D000FD5F0EA227E
:00000001FF
