:1005990020202D20202D20200020203A20203A2024
:0205A900200030
:1002F4001205851200037BFF7A0579997D017F0140
:100304001204FC7BFF7A0579A27D017F021204FCB2
:100314001200EDE518FB7A00750C027D017F0112D5
:10032400053DE519FB7A00750C027D047F01120579
:100334003DE51AFB7A00750C027D077F0112053D2D
:10034400E51BFB7A00750C027D017F0212053DE579
:100354001CFB7A00750C027D047F0212053DE51D2D
:0F036400FB7A00750C027D077F0212053D80A118
:0605AB00C2A58F80D2A75B
:0805B1007F027EEFDEFEDFFC9D
:0105B900221F
:0A05BA00C2A61205ABC2A70205B1EC
:10051F00CFCDCFCECCCE1202137C007D0A120213A8
:04052F00ED2430FF88
:0A053300D2A61205ABC2A70205B163
:10055A00AE07BE0104ED148006BE0209ED243F4435
:06056A0080FF1205BA2219
:100585007F381205BA7F0C1205BA7F061205BA7FAD
:04059500010205BAA0
:0A05C400AC0312055AAF0402053320
:0604FC008B088A09890A41
:1005020012055AE4FDAB08AA09A90A8D8275830077
:0C0512001201D4FF60061205330D80E9D1
:01051E0022BA
:0C04C9007F0AEA24FFFDE434FFFC7E0003
:0804D5008E0D8F0E8C0F8D10AF
:1004DD007F017E00E4FBEBC39510E50F6480F8749B
:0E04ED008098500AAC0DAD0E1202010B80E893
:0104FB0022DE
:04053D008A0A8B0B90
:1005410012055AAA0CEAD39400400D1204C9AC0A50
:08055100AD0B12051F1A80ED2D
:01055900227F
:10041E0012055AC3EA64809480400B7F2B12053379
:10042E008A168B17800E7F2D120533C3E49BF517AA
:10043E00E49AF516AA15EAD39400400D1204C9AC3D
:09044E0016AD1712051F1A80ED0E
:010457002282
:040458008A218B2248
:10045C0012055AAA23EAD3940040297F101204CB28
:10046C00AC21AD22CFCDCFCECCCE120213EF540F98
:10047C00FEC3940AEE5004243080022437FF120588
:04048C00331A80D1CE
:010490002249
:040491008A268B2705
:1004950012055AAA28EAD394004028EA24FFFDE46D
:1004A50034FFFC7F027E001204D5AC26AD27CFCDEC
:1004B500CFCECCCE120213EF54012430FF120533F8
:0304C5001A80D2C8
:0104C8002211
:0905CE000718130B100C3B370653
:0505D800C2B5C2B6220D
:0603730025F0FDEC3EFC4C
:060379008C088D09AB07A2
:10037F00D2B5E4FD74017E00A805088005C333CE15
:10038F0033CED8F9FFEBF582EF558224FF92B4D22A
:10039F00B6C2B60DBD08DDE4FD74017E00A80508E8
:1003AF008005C333CE33CED8F9FFE5085EFEE509ED
:1003BF005F4E24FF92B4D2B6C2B60DBD08DBC2B5F4
:0103CF00220B
:0203D000AD0777
:1003D200E4F9430501D2B5FB74017E00A80308804D
:1003E20005C333CE33CED8F9FFEDF582EF55822423
:1003F200FF92B4C2B6D2B60BBB08DDE4FBD2B6C2E2
:10040200B630B40D7401A803088002C333D8FC428D
:0B041200010BBB08E8C2B5C2B4AF018B
:01041D0022BC
:10000300E4FDFC7F8E120379E51875F00A8475F020
:1000130010A4FFAEF0E51875F00A84EF7F8C12038D
:1000230073E51975F00A8475F010A4FFAEF0E518B6
:1000330075F00A847C00EF7F88120373E51A75F06C
:100043000A8475F010A4FFAEF0E51875F00A847CFD
:1000530000EF25F0FDEC3EFC7F86120379E51B756E
:10006300F00A8475F010A4FFAEF0E51875F00A8469
:100073007C00EF25F0FDEC3EFC7F84120379E51C48
:1000830075F00A8475F010A4FFAEF0E51875F00A58
:10009300847C00EF25F0FDEC3EFC7F82120379E5C2
:1000A3001D75F00A8475F010A4FFAEF0E51875F025
:1000B3000A847C00EF25F0FDEC3EFC7F801203797F
:1000C300E51E75F00A8475F010A4FFAEF0E518750F
:1000D300F00A847C00EF25F0FDEC3EFC7F8A1203DE
:0A00E300797D807C007F8E02037996
:1000ED007F8C1203D0EF3395E0AD07FCC4F854F0CC
:1000FD00C8EDC4540F4875F00AA4FFED540F2FF549
:10010D00187F881203D0EF3395E0FCAD07C4F85487
:10011D00F0C8EDC4540F4875F00AA4FFED540F2F2D
:10012D00F5197F861203D0EF3395E0FCAD07C4F8C7
:10013D0054F0C8EDC4540F4875F00AA4FFED540FE8
:10014D002FF51A7F841203D0EF3395E0FCAD07C471
:10015D00F854F0C8EDC4540F4875F00AA4FFED54DF
:10016D000F2FF51B7F821203D0EF3395E0FCAD0707
:10017D00C4F854F0C8EDC4540F4875F00AA4FFED4F
:10018D00540F2FF51C7F801203D0EF3395E0FCAD9B
:10019D0007C4F854F0C8EDC4540F4875F00AA4FF15
:1001AD00ED540F2FF51D7F8A1203D0EF3395E0AD7F
:1001BD0007C4F854F0C8EDC4540F4875F00AA4FFF5
:0601CD00ED540F2FF51E9A
:0101D3002209
:10057000EF1FAC0670011E4C600A7D027CEFDCFEB2
:04058000DDFC80EC32
:010584002254
:0300000002026891
:0C026800787FE4F6D8FD7581280202AF13
:1001D400BB010CE58229F582E5833AF583E02250E0
:1001E40006E92582F8E622BBFE06E92582F8E2222A
:0D01F400E58229F582E5833AF583E4932244
:10020100EF8DF0A4A8F0CF8CF0A428CE8DF0A42E11
:02021100FE22CB
:10021300BC000BBE0029EF8DF084FFADF022E4CCCF
:10022300F875F008EF2FFFEE33FEEC33FCEE9DEC98
:10023300984005FCEE9DFE0FD5F0E9E4CEFD22EDDE
:10024300F8F5F0EE8420D21CFEADF075F008EF2F28
:10025300FFED33FD4007985006D5F0F222C398FD19
:050263000FD5F0EA22B6
:100274000202F4E493A3F8E493A34003F68001F2AA
:1002840008DFF48029E493A3F85407240CC8C3338B
:10029400C4540F4420C8834004F456800146F6DF5A
:1002A400E4800B01020408102040809005CEE47E17
:1002B400019360BCA3FF543F30E509541FFEE4934F
:1002C400A360010ECF54C025E060A840B8E493A316
:1002D400FAE493A3F8E493A3C8C582C8CAC583CA41
:1002E400F0A3C8C582C8CAC583CADFE9DEE780BEF9
:0105D7000023
:00000001FF
