:1001BA001205011205B88F27E52575F00A84FD7C22
:1001CA00007F011205AFE52575F00A84E5F0FD7C94
:1001DA00007F021205AF7D0B7C007F031205AFE59D
:1001EA002475F00A84FD7C007F041205AFE52475AE
:1001FA00F00A84E5F0FD7C007F051205AF7D0B7CDB
:10020A00007F061205AFE52675F00A84FD7C007FA3
:10021A00071205AFE52675F00A84E5F0FD7C007F3C
:06022A00081205AF808DF3
:10042A000526E526C394644019E4F5260524E52447
:10043A00943C400EE4F5240525E525943C4003E46C
:03044A00F5252273
:03000B000200A24E
:1000A200C0E0C0F0C083C082C0D075D000C000C024
:0D00B20001C002C003C004C005C006C007A5
:1000BF00758A18758CFC051FE51F7002051EC39409
:1000CF0014E51E94004009751E00751F001202D022
:1000DF000521E52170020520C39402E5209400401C
:1000EF00097520007521001204E60523E52370022F
:1000FF000522D3940AE52294004009752200752346
:04010F000012042AAC
:10011300D007D006D005D004D003D002D001D00040
:0B012300D0D0D082D083D0F0D0E032EA
:100406008F428C438D441205A67FA01203DD120590
:100416007CAF421203DD12057CAF441203DD1205E8
:040426007C02000351
:0203AD008F4B74
:1003AF001205A67FA01203DD12057CAF4B1203DDF1
:1003BF0012057C1205A67FA11203DD12057C120423
:0D03CF00708F4C7F01120588120003AF4CA7
:0103DC0022FE
:10054400EF1FAC0670011E4C600A7D027CEFDCFEDE
:04055400DDFC80EC5E
:010558002280
:0905A600D2A0D2A1C2A0C2A12280
:07000300C2A0D2A1D2A0228D
:0203DD00AD076A
:1003DF00E4FB74807E00A803088006CEA2E713CE4C
:1003EF0013D8F8FFEDF582EF558224FF92A0D2A12A
:0603FF00C2A10BBB08DCEB
:0104050022D4
:10047000E4FFD2A0FED2A130A00D7480A8060880AF
:0D04800002C313D8FC4207C2A10EBE08E85B
:01048D00224C
:0A058800EF24FF92A0D2A1C2A1222D
:0B057C00D2A0D2A1A2A0E433FFC2A1D4
:010587002251
:0505B800E4AF47F54728
:0105BD00221B
:10051800E4FF20B1010F20B0027F0220B2027F0366
:0505280020B3027F0476
:01052D0022AB
:1002D0008545461205188F45E546B40107E545708A
:1002E00003754701E546B40207E54570037547020B
:1002F000E546B40307E5457003754703E546B404D6
:0803000007E545700375470491
:0103080022D2
:06056D00C2A58F80D2A799
:080573007F027EEFDEFEDFFCDB
:01057B00225D
:0A059200C2A612056DC2A702057390
:10048E00CFCDCFCECCCE12004D7C007D0A12004DCA
:04049E00ED2430FF1A
:0A04A200D2A612056DC2A702057371
:10052E00AE07BE0104ED148006BE0209ED243F4461
:06053E0080FF120592226D
:100559007F381205927F0C1205927F061205927F51
:0405690001020592F4
:0A059C00AC0312052EAF040204A206
:06044D008B488A49894A30
:1004530012052EE4FDAB48AA49A94A8D8275830093
:0C04630012000EFF60061204A20D80E9DA
:01046F00226A
:0C037A007F0AEA24FFFDE434FFFC7E0053
:080386008E3E8F3F8C408D413B
:10038E007F017E00E4FBEBC39541E5406480F87489
:0E039E008098500AAC3EAD3F12003B0B80E849
:0103AC00222E
:0404AC008A318B32D4
:1004B00012052EAA33EAD39400400D12037AAC3110
:0804C000AD3212048E1A80ED2A
:0104C8002211
:1002960012052EC3EA64809480400B7F2B1204A2C1
:1002A6008A2D8B2E800E7F2D1204A2C3E49BF52E81
:1002B600E49AF52DAA2CEAD39400400D12037AACE9
:0902C6002DAD2E12048E1A80EDFC
:0102CF00220C
:040309008A368B376E
:10030D0012052EAA38EAD3940040297F1012037CDF
:10031D00AC36AD37CFCDCFCECCCE12004DEF540F86
:10032D00FEC3940AEE5004243080022437FF1204D9
:04033D00A21A80D1AF
:010341002299
:040342008A3B8B3C2B
:1003460012052EAA3DEAD394004028EA24FFFDE4D4
:1003560034FFFC7F027E00120386AC3BAD3CCFCD62
:10036600CFCECCCE12004DEF54012430FF1204A2A2
:030376001A80D218
:010379002261
:100501005389F0438901758A18758CFCC28DD28C90
:07051100D2A9D2AFC2B9224A
:1004C9000909000A0A0A0A0A0A0A0A0C123F065B03
:0C04D9004F666D7D077F6F004001080139
:0905AF00AE0574092FF8A606221E
:10023000E4F580EF14B40800505490024875F003C0
:10024000A4C58325F0C58373020260020264020222
:100250006802026C020270020278020280020288C6
:10026000D2A4800ED2A48012D2A48016D2A4801A66
:10027000C2A4D2A3D2A28016C2A4D2A3C2A2800ECC
:10028000C2A4C2A3D2A28006C2A4C2A3C2A27412F4
:060290002DF8E6F58022C6
:1004E60074092508F8E6FD7C00AF081202300508FD
:0A04F600E508C394094003750801EE
:0105000022D8
:0300000002012ECC
:0C012E00787FE4F6D8FD75814C02017565
:10000E00BB010CE58229F582E5833AF583E02250A7
:10001E0006E92582F8E622BBFE06E92582F8E222F1
:0D002E00E58229F582E5833AF583E493220B
:10003B00EF8DF0A4A8F0CF8CF0A428CE8DF0A42ED9
:02004B00FE2293
:10004D00BC000BBE0029EF8DF084FFADF022E4CC97
:10005D00F875F008EF2FFFEE33FEEC33FCEE9DEC60
:10006D00984005FCEE9DFE0FD5F0E9E4CEFD22EDA6
:10007D00F8F5F0EE8420D21CFEADF075F008EF2FF0
:10008D00FFED33FD4007985006D5F0F222C398FDE1
:05009D000FD5F0EA227E
:10013A000201BAE493A3F8E493A34003F68001F220
:10014A0008DFF48029E493A3F85407240CC8C333C6
:10015A00C4540F4420C8834004F456800146F6DF95
:10016A00E4800B01020408102040809004C9E47E58
:10017A00019360BCA3FF543F30E509541FFEE4938A
:10018A00A360010ECF54C025E060A840B8E493A351
:10019A00FAE493A3F8E493A3C8C582C8CAC583CA7C
:1001AA00F0A3C8C582C8CAC583CADFE9DEE780BE34
:0104E5000016
:00000001FF
