:1000C70075A0FE1200E712000E8F0AE50A60F7B46A
:1000D70001F4050BE50BC3940240EBE4F50B80E656
:03000B0002006F81
:10006F00C0E0C0D075D000C000C0070509E5097019
:10007F00020508758CFC758A17C3E50994F4E50829
:10008F00648094814029750800750900E50B700D97
:10009F00AFA07801EF08800123D8FDF5A0E50BB4E0
:1000AF00010DAFA07801EF08800103D8FDF5A0D0B6
:0800BF0007D000D0D0D0E032E0
:1000E7005389F0438901C28DD28C758CFC758A17B0
:0700F700D2A9D2AFC2B92269
:1000FE00EF1FAC0670011E4C600A7D027CEFDCFE29
:04010E00DDFC80ECA8
:0101120022CA
:10000E00E4F50C20B1137F14FE1200FE30B1FD7F1B
:10001E00147E001200FE750C0120B0147F147E00B9
:10002E001200FE30B0FD7F147E001200FE750C0231
:10003E0020B2147F147E001200FE30B2FD7F147EBB
:10004E00001200FE750C0320B3147F147E00120004
:10005E00FE30B3FD7F147E001200FE750C04AF0C53
:01006E00226F
:03000000020113E7
:0C011300787FE4F6D8FD75810C0200C76F
:00000001FF
