:100394005772697465204F4B0020202020202020B4
:0A03A400200052656164204F4B00F9
:100003001203D9E522FB7A00750C057D017F0112ED
:10001300037712015C8F23E523B401110522E52246
:10002300FB7A00750C057D017F01120377E523B48C
:1000330002111522E522FB7A00750C057D017F0173
:10004300120377E52364037037FCAD22FF1202F439
:100053007F057E001203C4E4FDFC7F011202F47BE2
:10006300FF7A0379947D017F021203187FE87E03F0
:100073001203C47BFF7A03799D7D017F021203186B
:10008300E5236404708CFF12029B8F227F0112020E
:100093009BE4E522FB7A00750C057D017F011203C9
:1000A300777BFF7A0379A67D017F021203187FE82D
:1000B3007E031203C47BFF7A03799D7D017F0212C5
:0500C300031802001506
:1003C400EF1FAC0670011E4C600A7D027CEFDCFE60
:0403D400DDFC80ECE0
:0103D8002202
:10015C00E4F50820B1137F14FE1203C430B1FD7F07
:10016C00147E001203C475080120B0147F147E00A5
:10017C001203C430B0FD7F147E001203C475080254
:10018C0020B2147F147E001203C430B2FD7F147EA3
:10019C00001203C475080320B3147F147E001203ED
:1001AC00C430B3FD7F147E001203C4750804AF087D
:0101BC002220
:0603ED00C2A58F80D2A71B
:0803F3007F027EEFDEFEDFFC5D
:0103FB0022DF
:0A041400C2A61203EDC2A70203F313
:10033B00CFCDCFCECCCE1201077C007D0A120107A8
:04034B00ED2430FF6E
:0A034F00D2A61203EDC2A70203F3C9
:1003AE00AE07BE0104ED148006BE0209ED243F44E3
:0603BE0080FF120414226E
:1003D9007F381204147F0C1204147F061204147F50
:0403E90001020414F5
:0A041E00AC031203AEAF0402034F5B
:060318008B088A09890A26
:10031E001203AEE4FDAB08AA09A90A8D827583000B
:0C032E001200C8FF600612034F0D80E9AA
:01033A0022A0
:0C0268007F0AEA24FFFDE434FFFC7E0066
:080274008E0D8F0E8C0F8D1012
:10027C007F017E00E4FBEBC39510E50F6480F874FE
:0E028C008098500AAC0DAD0E1200F50B80E804
:01029A002241
:040377008A0A8B0B58
:10037B001203AEAA0CEAD39400400D120268AC0A29
:08038B00AD0B12033B1A80EDDB
:010393002247
:1001BD001203AEC3EA64809480400B7F2B12034F71
:1001CD008A168B17800E7F2D12034FC3E49BF517F4
:1001DD00E49AF516AA15EAD39400400D120268AC04
:0901ED0016AD1712033B1A80ED58
:0101F60022E6
:0401F7008A1A8B1BBA
:1001FB001203AEAA1CEAD3940040297F1012026AA4
:10020B00AC1AAD1BCFCDCFCECCCE120107EF540F16
:10021B00FEC3940AEE5004243080022437FF1203ED
:04022B004F1A80D115
:01022F0022AC
:040230008A1F8B2076
:100234001203AEAA21EAD394004028EA24FFFDE485
:1002440034FFFC7F027E00120274AC1FAD20CFCDC0
:10025400CFCECCCE120107EF54012430FF12034F4E
:030264001A80D22B
:010267002274
:09043200D2A0D2A1C2A0C2A122F5
:07043B00C2A0D2A1D2A02251
:0202CB00AD077D
:1002CD00E4FB74807E00A803088006CEA2E713CE5F
:1002DD0013D8F8FFEDF582EF558224FF92A0D2A13D
:0602ED00C2A10BBB08DCFE
:0102F30022E8
:10035900E4FFD2A0FED2A130A00D7480A8060880C7
:0D03690002C313D8FC4207C2A10EBE08E873
:010376002264
:0A042800EF24FF92A0D2A1C2A1228E
:0B03FC00D2A0D2A1A2A0E433FFC2A156
:0104070022D2
:1002F4008F088C098D0A1204327FA01202CB1203DC
:10030400FCAF081202CB1203FCAF0A1202CB120399
:04031400FC02043BA8
:02029B008F08CA
:10029D001204327FA01202CB1203FCAF081202CB64
:1002AD001203FC1204327FA11202CB1203FC1203C3
:0D02BD00598F097F0112042812043BAF097C
:0102CA002211
:03000000020408EF
:0C040800787FE4F6D8FD75812402000323
:1000C800BB010CE58229F582E5833AF583E02250ED
:1000D80006E92582F8E622BBFE06E92582F8E22237
:0D00E800E58229F582E5833AF583E4932251
:1000F500EF8DF0A4A8F0CF8CF0A428CE8DF0A42E1F
:02010500FE22D8
:10010700BC000BBE0029EF8DF084FFADF022E4CCDC
:10011700F875F008EF2FFFEE33FEEC33FCEE9DECA5
:10012700984005FCEE9DFE0FD5F0E9E4CEFD22EDEB
:10013700F8F5F0EE8420D21CFEADF075F008EF2F35
:10014700FFED33FD4007985006D5F0F222C398FD26
:050157000FD5F0EA22C3
:00000001FF
